S02100004272656E64616E5F4368656E675F4775697461725F4865726F2E737265634D
S113000058C0000073C0000071C000006FC0000041
S11300106DC000006BC0000069C0000067C0000034
S113002065C0000063C0000061C000005FC0000044
S11300305DC00000FAC0000059C0000057C00000B5
S113004055C0000053C0000051C000004FC0000064
S11300504DC000004BC0000049C0000047C0000074
S113006045C0000043C0000041C000003FC0000084
S11300703DC000003BC0000039C0000037C0000094
S113008035C0000033C0000031C0000091019E0162
S11300909801A501B801BE01D101D701EA01F0011F
S11300A07502AB01C401DD01F601150234025302ED
S11300B06B0211241FBECFEFD0E4DEBFCDBF11E031
S11300C0A0E0B1E0EEEEFBE000E00BBF02C0079061
S11300D00D92AE3DB107D9F721E0AEEDB1E001C01C
S11300E01D92A43FB207E1F72BD57FC589CF18161F
S11300F019065CF00895000021503109E1F74F5FC3
S11301005F4F4817590729F4089540E050E067E02D
S113011073E09B01F0CF109A8BB9119A00001198EB
S113012081E090E0E4CF10988BB9119A0000119807
S113013082E090E0DCCF813110F48158F4CF815516
S1130140F2CF1F93CF93DF93EB019881992349F06A
S1130150182F1F5FF0DF8991DEDF812F98819111C5
S1130160F7CFDF91CF911F91089581E0DCCF1F93EA
S1130170CF93DF93182FEB01F8DF9881992351F087
S1130180812F182F1F5FD7DF8991C5DF812F9881B9
S11301909111F7CFDF91CF911F91089584E690E0FC
S11301A0A6DF88E3C0DF86E0BEDF8FE0BCDF81E04E
S11301B0BADF8AE090E09BCF60935B0170935C01AF
S11301C080935D0190935E016093ED017093EE0165
S11301D08093EF019093F00108958BE08093810068
S11301E08DE790E0909389008093880082E080936B
S11301F06F00109285001092840080915B019091B1
S11302005C01A0915D01B0915E018093ED0190933A
S1130210EE01A093EF01B093F0018FB780688FBF18
S1130220089581E08093F10108951F920F920FB613
S11302300F9211240BB60F922F933F934F935F931A
S11302406F937F938F939F93AF93BF93EF93FF939A
S11302508091ED019091EE01A091EF01B091F00138
S11302600197A109B1098093ED019093EE01A09348
S1130270EF01B093F001892B8A2B8B2B89F4D1DF0A
S113028080915B0190915C01A0915D01B0915E0150
S11302908093ED019093EE01A093EF01B093F001F0
S11302A0FF91EF91BF91AF919F918F917F916F914A
S11302B05F914F913F912F910F900BBE0F900FBE06
S11302C00F901F90189520E030E078E090E075B929
S11302D065B1AC01022E02C0559547950A94E2F728
S11302E041705527462B45B9299A2F5F3F4F283037
S11302F0310569F72A9A15B8089580B180958470FC
S11303008093E90190B1909598709093E801E09101
S1130310F201F0E0E331F10508F0ECC0EA5BFF4FD5
S11303205EC4882309F4FFC082E08093F20108953B
S1130330811172C181E08093F2011CC1992309F4F7
S113034019C183E08093F2010895911165C18BE096
S11303508093F20119C1882321F084E08093F20193
S11303600895992309F410C185E08093F20108955A
S1130370811152C18EE08093F20130C191114CC1C0
S11303808CE08093F2010CC1882321F086E08093F5
S1130390F2010895992309F403C187E08093F201DF
S11303A00895811139C18FE08093F2011DC191112B
S11303B033C18DE08093F20101C1882321F088E0EC
S11303C08093F2010895992309F4F8C089E0809399
S11303D0F2010895811120C180E18093F2010BC1E3
S11303E091111AC18BE08093F201CEC09091DF018C
S11303F09530B8F49091EB01913021F481E1809330
S1130400F20100C1882321F083E18093F201089571
S113041068EC70E080E090E0CFDE8EE08093F20143
S1130420DDC081E18093F201EDC09091DF01953050
S1130430B8F49091EB01913021F481E18093F201C1
S1130440E1C0882321F083E18093F201089564E6FA
S113045070E080E090E0B0DE8FE08093F201C4C0F1
S113046081E18093F201CEC09091DF019530B8F420
S11304709091EB01913021F481E18093F201C2C0AB
S1130480882321F083E18093F201089564E670E00B
S113049080E090E091DE80E18093F201ACC081E1E4
S11304A08093F201AFC0882321F08AE08093F201A7
S11304B0089582E18093F20171DE57DE81E03BDE34
S11304C0609135017091360181E051DE8091EA013D
S11304D08A3039F522C0882321F08AE08093F20122
S11304E0089581E18093F2018DC0811195C010922D
S11304F0F20119C01092F20116C06091330170919B
S1130500340181E034DE82E006CE609131017091E5
S1130510320181E02CDE83E0FECD81E3FCDD80E36B
S1130520FACD805DF8CD1092E0011092E7011092AF
S1130530E1011092EB011092DF011092E60180E0DC
S1130540C2DE18B84ADE62E370E080E090E034DE98
S11305501092EA0123DE09DE81E0EDDD60913701CE
S11305607091380181E003DE80E0D5DD81E0D3DDE8
S113057080E0D1CD13DEF9DD81E0DDDD609139016C
S113058070913A0181E0F3CD09DEEFDD81E0D3DD46
S113059060912F017091300181E0E9DD80E0BBCDF5
S11305A0FDDDE3DD81E0C7DD60912D0170912E0159
S11305B081E0DDDD80E0AFDD80E0ADCDEFDDD5DDD8
S11305C081E0B9DD60912B0170912C0181E0CFDDD8
S11305D080E0A1DD80E09FDD80E09DCD81E080931F
S11305E0E7018093EC01089581E08093E70182E0C4
S11305F08093EC01089581E08093E70183E0809388
S1130600EC010895CBDDB1DD81E095DD8091EB0156
S1130610813009F07ACF71CF089590B1909590719F
S11306209093E50120B1209520722093E40130B12C
S1130630309530743093E30140B140954078409355
S1130640E2018091F301823009F431C130F488234E
S113065059F0813009F069C114C0833009F456C1DE
S1130660843009F062C15EC18091EC01882309F4F1
S11306706FC18150833008F06BC181E08093F30136
S11306806CC18091E701813009F067C18091E1017B
S11306908F5F8093E101863069F0911107C02111C9
S11306A005C0311103C0442309F4FDC082E08093E6
S11306B0F301C7C18091EC01813009F03FC0809102
S11306C0E001882321F0853011F0883051F4332380
S11306D021F083E08093F30128C182E08093F30149
S11306E024C1813011F0843051F4992321F083E046
S11306F08093F3011AC182E08093F30116C1823022
S113070011F0863051F4442321F083E08093F30107
S11307100CC182E08093F30108C1833029F0873053
S113072019F0893009F001C1222321F083E080937C
S1130730F301FBC082E08093F301F7C0823009F03B
S11307403FC08091E001833021F0853011F0893081
S113075051F4332321F083E08093F301E6C082E077
S11307608093F301E2C0813051F4992321F083E0B6
S11307708093F301DAC082E08093F301D6C0843021
S113078021F0863011F0873051F4442321F083E0C6
S11307908093F301CAC082E08093F301C6C088232A
S11307A029F0823019F0883009F0BFC0222321F0EB
S11307B083E08093F301B9C082E08093F301B5C074
S11307C0833009F0B2C08091E00181110CC09923FB
S11307D031F0332321F083E08093F30158C182E0A8
S11307E08093F3012EC1813011F0853061F43323FD
S11307F031F0222321F083E08093F30148C182E0A9
S11308008093F3011EC1823011F0863061F44423D9
S113081031F0992321F083E08093F30138C182E021
S11308208093F3010EC1833049F4222319F080939D
S1130830F3012DC182E08093F30103C1843051F4AC
S1130840442321F083E08093F30121C182E080936B
S1130850F301F7C0873051F4332321F083E0809310
S1130860F30115C182E08093F301EBC0883061F499
S1130870332331F0992321F083E08093F30107C1FE
S113088082E08093F301DDC0893009F04EC0442337
S113089031F0222321F083E08093F301F8C082E059
S11308A08093F301CEC081E08093F30156C0809120
S11308B0DF018F5F8093DF018530F8F068EE73E02D
S11308C080E090E079DC1092E70168DC4EDC81E0A6
S11308D032DC609102017091030181E048DC809177
S11308E0EA01805D18DC609100017091010181E1F1
S11308F028DC8091DF01805D0EDC8091E1018F5F57
S11309008093E10184E08093F301E7C08091EA01E0
S11309108F5F8093EA0188E08093E10184E0809313
S1130920F301DBC01092F30113C08091F301823014
S113093009F487C030F4882359F0813009F0FFC0EE
S11309400CC0833009F4A3C0843009F0F8C0C5C0DA
S11309501092E10118B880E0B6CC8091EB018130AF
S113096061F18091E701813041F58091E0018A30A5
S113097029F464EF71E080E090E01EDC0FDCF5DB2D
S113098081E0D9DB609102017091030181E0EFDB2A
S11309908091EA018A3029F481E3BDDB80E3BBDB8B
S11309A002C0805DB8DB609100017091010181E1BA
S11309B0C8DB8091DF01805DAEDB8091E0018A308D
S11309C068F58091E701813009F0B9C0E091E10157
S11309D0F0E0EE5DFE4F808176DC8091EC018130A9
S11309E041F4E091E001F0E0E85EFE4F808188B9D7
S11309F00895823041F4E091E001F0E0E25FFE4FBF
S1130A00808188B90895833009F099C0E091E001AC
S1130A10F0E0EC5FFE4F808188B908958091DF019A
S1130A20853008F08CC068EE73E080E090E0C4DBB1
S1130A3081E08093EB011092DF0180E044DC18B880
S1130A4008958091EC01813041F4E091E001F0E0FF
S1130A50E85EFE4F808188B913C0823041F4E09192
S1130A60E001F0E0E25FFE4F808188B909C0833085
S1130A7039F4E091E001F0E0EC5FFE4F808188B949
S1130A80E091E101F0E0EE5DFE4F80811CCC8091AD
S1130A90EC01813041F4E091E001F0E0E85EFE4FCA
S1130AA0808188B913C0823041F4E091E001F0E024
S1130AB0E25FFE4F808188B909C0833039F4E09148
S1130AC0E001F0E0EC5FFE4F808188B9E091E10144
S1130AD0F0E0EE5DFE4F8081F6CB8091EC01813039
S1130AE041F4E091E001F0E0E85EFE4F808188B9D6
S1130AF013C0823041F4E091E001F0E0E25FFE4F88
S1130B00808188B909C0833039F4E091E001F0E0D4
S1130B10EC5FFE4F808188B9E091E101F0E0EE5D89
S1130B20FE4F8081D0DB1092E1018091E0018F5F64
S1130B308093E0018091DE018F5F8093DE01089550
S1130B4083E081B98CEF82B9CFEFCAB91BB8C4B9BD
S1130B5080E0B9DBC7B918B862E370E080E090E0E8
S1130B602BDB3BDB80E4DFDAC3E5D1E00BE511E00E
S1130B708991D1DAC017D107D9F780E8D4DA88E4AB
S1130B80D2DACBE4D1E003E511E08991C4DAC017ED
S1130B90D107D9F780E8C7DA80E5C5DAC3E4D1E044
S1130BA00BE411E08991B7DAC017D107D9F780E8CF
S1130BB0BADA88E5B8DACBE3D1E003E411E089914D
S1130BC0AADAC017D107D9F780E8ADDA96DB25DDBC
S1130BD08091F1018823E1F31092F101F7CFEE0F38
S1110BE0FF1F0590F491E02D0994F894FFCFC7
S1130BEE5F01A201333CC30CC03CC33033CC0C03B5
S1130BFE0C30C030C0C00C303003C00C0330C00CFD
S1130C0E300C7FBFDFEFF7FBFDFEFF680173017C45
S1130C1E01850193019C01AA01C301000A0A0A007D
S1130C2E0E1111000A0A0A0011110E0000000F091C
S1130C3E091B1B04060504041C1C1C010000004DAA
S1130C4E69737365643A2000332E2045787065729B
S1130C5E742000322E20486172642000312E20450B
S1130C6E617379200047616D65204F7665722E2E73
S1130C7E2E200057696E6E6572212000546F7461C8
S1130C8E6C2053636F72653A2000524541445920DB
S1130C9E464F5220424F415244204845524F3F2125
S1130CAE3F2000312E204561737920322E20486179
S1110CBE726420332E20457870657274000035
S9030000FC
